:1003CF000125000124000128000126000129000158
:0203DF002700F5
:10016C001203A57F017E001202D212021120B216D8
:10017C007F0A7E001202D220B20C309404D2098085
:10018C0002C20912000320B3E47F147E001202D2D3
:10019C0020B3DA751D6430B30B7521801200031285
:1001AC00021180107F1E7E001202D2151DE51DD398
:1001BC00940050E2E521B48005E4F52180AFD20C27
:0501CC0012000380A8F1
:1003A50075B0FF75A0FF7590FF7580FF758901C257
:0703B500AFE4F521D287221D
:10021100751E02D290D291C2921203E27F327E0009
:100221001202D21202F22000F03002ED7D047C00B5
:100231007F401203751202F23010FA1202CCD287FB
:0C0241001202CE151EE51ED3940050EFF3
:01024D00228E
:10000300E52124FE606324F270030200A4249070AF
:10001300030200D3248060030200DF1202F23010D7
:10002300FA7F0A7E001202D212040A7F027E0012B5
:1000330002D2C2871202F220B3107F147E00120292
:10004300D220B3061203FA0203EA2012E7D2871280
:1000530003FA1202F23010FA7F0A7E001202D21261
:1000630004321202F23010FA221203FA1202F230B0
:1000730010FAC2871204121202F2300118751E031D
:100083001202CCD2877FC87E001202D2151EE51E53
:10009300D3940050EB30B2DF1203FA1203EAD28793
:1000A300221202F23010FA7F027E001202D21204F0
:1000B300221202F23010FA751E031202CCD2877F8D
:1000C300C87E001202D2151EE51ED3940050EB2207
:0C00D3001203FA1203EA1203F2120402F4
:0100DF0022FE
:0F01D1001201E0E4FF1201E0E4FF1201E0E4FF9D
:1001E000D291C2907E04DEFEE4FDC2917E02DEFE6C
:1001F000EF30E004D2928002C292EFC313FF30933B
:1002000003430780D2917E06DEFE0DBD08DCC2925C
:0102100022CB
:0803E2007F011201DBD2902221
:0803EA007F021201DBD2902218
:0803F2007F031201DBD290220F
:0803FA007F041201DBD2902206
:1002F2007F051201D6D2907F02DFFE7F051201E058
:100302008F20E4FF1201E08F23E4FF1201E08F222D
:02031200D29087
:0103140022C6
:10024E007F061201D1D2907F02DFFE7F061201E0FF
:10025E008F20E4FF1201E08F23E4FF1201E08F28CC
:09026E00E4FF1201E08F26D2909A
:010277002264
:080402007F071201DBD29022FA
:100278007F081201D1D2907F02DFFE7F081201E0D1
:100288008F20E4FF1201E08F23E4FF1201E08F29A1
:09029800E4FF1201E08F27D2906F
:0102A100223A
:1003BC007F091201D6D2907F02DFFE7F091201D68F
:0203CC00D290CD
:0103CE00220C
:08040A007F401201DBD29022B9
:080412007F411201DBD29022B0
:08041A007F421201DBD29022A7
:080422007F431201DBD290229E
:1002A2007F441201D1D2907F02DFFE7F441201E02F
:1002B2008F20E4FF1201E08F23E4FF1201E08F257B
:0902C200E4FF1201E08F24D29048
:0102CB002210
:10037500AB05AA04AC077F651201E0AF041201E0EA
:08038500AF031201E0D2902247
:10038D00AB05AA04AC077F461201E0AF041201E0F1
:08039D00AF031201E0D290222F
:08042A007F471201DBD2902292
:080432007F481201DBD2902289
:08043A007F491201DBD2902280
:080442007F4A1201DBD2902277
:10031500A9078D827F801201DBAF011201E0AF8258
:100325001201E0AF031201E0AF0E1201DBD2902201
:10033500A9078D827F811201DBAF011201E0AF8237
:100345001201E0AF031201E0AF151201DBD29022DA
:10035500A9078D827F821201DBAF011201E0AF8216
:100365001201E0AF031201E0AF1C1201DBD29022B3
:0602CC00C2877F2C7E01B9
:1002D200D3EF9400EE94004016758CFC758A18D208
:1002E2008C308DFDC28DC28CEF1F70E41E80E12226
:030000000200E01B
:0C00E000787FE4F6D8FD75812902012725
:1000EC0002016CE493A3F8E493A34003F68001F2BD
:1000FC0008DFF48029E493A3F85407240CC8C33315
:10010C00C4540F4420C8834004F456800146F6DFE3
:10011C00E4800B01020408102040809003CFE47EA1
:10012C00019360BCA3FF543F30E509541FFEE493D8
:10013C00A360010ECF54C025E060A840B8E493A39F
:10014C00FAE493A3F8E493A3C8C582C8CAC583CACA
:10015C00F0A3C8C582C8CAC583CADFE9DEE780BE82
:0103E100001B
:00000001FF
