:0A01C00002080000C102C100C101E5
:10016900D3EF9400EE940040147D6E7C00ED1D7079
:0D017900011CED4C70F7EF1F70E61E80E3D7
:010186002256
:10019E00C2967F647E00120169D2967F647E000251
:0201AE000169E5
:060187001200E912018DD7
:10018D007F507EC3EF1FAC0670011E4C70F6B29609
:01019D00223F
:1000E900EF24FE601114601914602114602924049E
:1000F9007033D2A98027D2A9C290C291C2A4C2A545
:1001090022D2A9C290D291C2A4D2A522D2A9D290B8
:10011900C291D2A4C2A522C2A9D292D293D290D21C
:0601290091D2A4D2A52230
:1001B000758901D2A9758CFC758A66D28CD2AF2262
:10009A00C2031201B07F051200E9C28112019ED289
:1000AA00817FD07E07120169C28012019ED2807FB1
:1000BA00407E1F120169C28112019ED28120A4FDD5
:1000CA007F011200E920B7F80F120187C2801201DE
:0F00DA009ED2807F031201877F011200E980E12F
:03000B0002012FC0
:10012F00C0E0C0D0758CFC758A66C2AF0509E509C1
:10013F0070020508C39414E50894005006C292C2D9
:10014F00938004D292D293E509646445087004F554
:0A015F0008F509D2AFD0D0D0E0328D
:0300000002000EED
:0C000E00787FE4F6D8FD758120020055D3
:10001A0002009AE493A3F8E493A34003F68001F262
:10002A0008DFF48029E493A3F85407240CC8C333E7
:10003A00C4540F4420C8834004F456800146F6DFB6
:10004A00E4800B01020408102040809001C0E47E85
:10005A00019360BCA3FF543F30E509541FFEE493AB
:10006A00A360010ECF54C025E060A840B8E493A372
:10007A00FAE493A3F8E493A3C8C582C8CAC583CA9D
:10008A00F0A3C8C582C8CAC583CADFE9DEE780BE55
:0101CA000034
:00000001FF
